{
    "_format": "hh-sol-artifact-1",
    "contractName": "LogisticsPoD",
    "sourceName": "contracts/Logi.sol",
    "abi": [
        {
            "inputs": [],
            "stateMutability": "nonpayable",
            "type": "constructor"
        },
        {
            "anonymous": false,
            "inputs": [
                {
                    "indexed": true,
                    "internalType": "uint256",
                    "name": "deliveryId",
                    "type": "uint256"
                },
                {
                    "indexed": false,
                    "internalType": "address",
                    "name": "rider",
                    "type": "address"
                },
                {
                    "indexed": false,
                    "internalType": "string",
                    "name": "ipfsHash",
                    "type": "string"
                }
            ],
            "name": "DeliverySubmitted",
            "type": "event"
        },
        {
            "anonymous": false,
            "inputs": [
                {
                    "indexed": true,
                    "internalType": "uint256",
                    "name": "deliveryId",
                    "type": "uint256"
                },
                {
                    "indexed": false,
                    "internalType": "address",
                    "name": "rider",
                    "type": "address"
                },
                {
                    "indexed": false,
                    "internalType": "uint256",
                    "name": "payment",
                    "type": "uint256"
                }
            ],
            "name": "DeliveryVerified",
            "type": "event"
        },
        {
            "anonymous": false,
            "inputs": [
                {
                    "indexed": true,
                    "internalType": "address",
                    "name": "user",
                    "type": "address"
                },
                {
                    "indexed": false,
                    "internalType": "uint256",
                    "name": "amount",
                    "type": "uint256"
                }
            ],
            "name": "FundsWithdrawn",
            "type": "event"
        },
        {
            "anonymous": false,
            "inputs": [
                {
                    "indexed": true,
                    "internalType": "address",
                    "name": "user",
                    "type": "address"
                },
                {
                    "indexed": false,
                    "internalType": "enum LogisticsPoD.Role",
                    "name": "role",
                    "type": "uint8"
                }
            ],
            "name": "UserRegistered",
            "type": "event"
        },
        {
            "inputs": [
                {
                    "internalType": "address",
                    "name": "",
                    "type": "address"
                }
            ],
            "name": "balances",
            "outputs": [
                {
                    "internalType": "uint256",
                    "name": "",
                    "type": "uint256"
                }
            ],
            "stateMutability": "view",
            "type": "function"
        },
        {
            "inputs": [
                {
                    "internalType": "uint256",
                    "name": "",
                    "type": "uint256"
                }
            ],
            "name": "deliveries",
            "outputs": [
                {
                    "internalType": "address",
                    "name": "rider",
                    "type": "address"
                },
                {
                    "internalType": "address",
                    "name": "customer",
                    "type": "address"
                },
                {
                    "internalType": "string",
                    "name": "ipfsHash",
                    "type": "string"
                },
                {
                    "internalType": "uint256",
                    "name": "timestamp",
                    "type": "uint256"
                },
                {
                    "internalType": "bool",
                    "name": "verified",
                    "type": "bool"
                }
            ],
            "stateMutability": "view",
            "type": "function"
        },
        {
            "inputs": [],
            "name": "deliveryCount",
            "outputs": [
                {
                    "internalType": "uint256",
                    "name": "",
                    "type": "uint256"
                }
            ],
            "stateMutability": "view",
            "type": "function"
        },
        {
            "inputs": [],
            "name": "getAllDeliveries",
            "outputs": [
                {
                    "components": [
                        {
                            "internalType": "address",
                            "name": "rider",
                            "type": "address"
                        },
                        {
                            "internalType": "address",
                            "name": "customer",
                            "type": "address"
                        },
                        {
                            "internalType": "string",
                            "name": "ipfsHash",
                            "type": "string"
                        },
                        {
                            "internalType": "uint256",
                            "name": "timestamp",
                            "type": "uint256"
                        },
                        {
                            "internalType": "bool",
                            "name": "verified",
                            "type": "bool"
                        }
                    ],
                    "internalType": "struct LogisticsPoD.Delivery[]",
                    "name": "",
                    "type": "tuple[]"
                }
            ],
            "stateMutability": "view",
            "type": "function"
        },
        {
            "inputs": [
                {
                    "internalType": "address",
                    "name": "userAddress",
                    "type": "address"
                }
            ],
            "name": "getUser",
            "outputs": [
                {
                    "internalType": "enum LogisticsPoD.Role",
                    "name": "",
                    "type": "uint8"
                }
            ],
            "stateMutability": "view",
            "type": "function"
        },
        {
            "inputs": [],
            "name": "owner",
            "outputs": [
                {
                    "internalType": "address",
                    "name": "",
                    "type": "address"
                }
            ],
            "stateMutability": "view",
            "type": "function"
        },
        {
            "inputs": [],
            "name": "registerOrder",
            "outputs": [],
            "stateMutability": "nonpayable",
            "type": "function"
        },
        {
            "inputs": [
                {
                    "internalType": "enum LogisticsPoD.Role",
                    "name": "_role",
                    "type": "uint8"
                }
            ],
            "name": "registerUser",
            "outputs": [],
            "stateMutability": "nonpayable",
            "type": "function"
        },
        {
            "inputs": [
                {
                    "internalType": "uint256",
                    "name": "_deliveryId",
                    "type": "uint256"
                },
                {
                    "internalType": "string",
                    "name": "_ipfsHash",
                    "type": "string"
                }
            ],
            "name": "submitDelivery",
            "outputs": [],
            "stateMutability": "nonpayable",
            "type": "function"
        },
        {
            "inputs": [
                {
                    "internalType": "address",
                    "name": "",
                    "type": "address"
                }
            ],
            "name": "users",
            "outputs": [
                {
                    "internalType": "enum LogisticsPoD.Role",
                    "name": "role",
                    "type": "uint8"
                },
                {
                    "internalType": "bool",
                    "name": "registered",
                    "type": "bool"
                }
            ],
            "stateMutability": "view",
            "type": "function"
        },
        {
            "inputs": [
                {
                    "internalType": "uint256",
                    "name": "_deliveryId",
                    "type": "uint256"
                }
            ],
            "name": "verifyDelivery",
            "outputs": [],
            "stateMutability": "nonpayable",
            "type": "function"
        },
        {
            "inputs": [],
            "name": "withdraw",
            "outputs": [],
            "stateMutability": "nonpayable",
            "type": "function"
        },
        {
            "stateMutability": "payable",
            "type": "receive"
        }
    ],
    "bytecode": "0x608060405234801561001057600080fd5b5033600460006101000a81548173ffffffffffffffffffffffffffffffffffffffff021916908373ffffffffffffffffffffffffffffffffffffffff160217905550612113806100616000396000f3fe6080604052600436106100ab5760003560e01c80636f77926b116100645780636f77926b146101b15780638da5cb5b146101ee5780638f00c3151461021957806394956bae14610244578063a87430ba1461025b578063a9e4a32414610299576100b2565b806302b8c8cd146100b757806323675c47146100e057806327e235e3146101095780633ccfd60b146101465780635b77b6a61461015d578063618d1d4a14610188576100b2565b366100b257005b600080fd5b3480156100c357600080fd5b506100de60048036038101906100d991906115ae565b6102da565b005b3480156100ec57600080fd5b50610107600480360381019061010291906115d7565b610533565b005b34801561011557600080fd5b50610130600480360381019061012b9190611585565b61080a565b60405161013d9190611d51565b60405180910390f35b34801561015257600080fd5b5061015b610822565b005b34801561016957600080fd5b506101726109ec565b60405161017f9190611d51565b60405180910390f35b34801561019457600080fd5b506101af60048036038101906101aa9190611600565b6109f2565b005b3480156101bd57600080fd5b506101d860048036038101906101d39190611585565b610d38565b6040516101e59190611bcd565b60405180910390f35b3480156101fa57600080fd5b50610203610d90565b6040516102109190611add565b60405180910390f35b34801561022557600080fd5b5061022e610db6565b60405161023b9190611bab565b60405180910390f35b34801561025057600080fd5b50610259611025565b005b34801561026757600080fd5b50610282600480360381019061027d9190611585565b611295565b604051610290929190611be8565b60405180910390f35b3480156102a557600080fd5b506102c060048036038101906102bb91906115d7565b6112d3565b6040516102d1959493929190611af8565b60405180910390f35b60006002811115610314577f4e487b7100000000000000000000000000000000000000000000000000000000600052602160045260246000fd5b6000803373ffffffffffffffffffffffffffffffffffffffff1673ffffffffffffffffffffffffffffffffffffffff16815260200190815260200160002060000160009054906101000a900460ff16600281111561039b577f4e487b7100000000000000000000000000000000000000000000000000000000600052602160045260246000fd5b146103db576040517f08c379a00000000000000000000000000000000000000000000000000000000081526004016103d290611c31565b60405180910390fd5b604051806040016040528082600281111561041f577f4e487b7100000000000000000000000000000000000000000000000000000000600052602160045260246000fd5b8152602001600115158152506000803373ffffffffffffffffffffffffffffffffffffffff1673ffffffffffffffffffffffffffffffffffffffff16815260200190815260200160002060008201518160000160006101000a81548160ff021916908360028111156104ba577f4e487b7100000000000000000000000000000000000000000000000000000000600052602160045260246000fd5b021790555060208201518160000160016101000a81548160ff0219169083151502179055509050503373ffffffffffffffffffffffffffffffffffffffff167f8e18574f8a7333e6a87112742a55853a643e2f0550f4e1a3a2c3f1bb2994441d826040516105289190611bcd565b60405180910390a250565b600460009054906101000a900473ffffffffffffffffffffffffffffffffffffffff1673ffffffffffffffffffffffffffffffffffffffff163373ffffffffffffffffffffffffffffffffffffffff16146105c3576040517f08c379a00000000000000000000000000000000000000000000000000000000081526004016105ba90611d31565b60405180910390fd5b6003548110610607576040517f08c379a00000000000000000000000000000000000000000000000000000000081526004016105fe90611d11565b60405180910390fd5b60006001600083815260200190815260200160002090508060040160009054906101000a900460ff1615610670576040517f08c379a000000000000000000000000000000000000000000000000000000000815260040161066790611c91565b60405180910390fd5b600073ffffffffffffffffffffffffffffffffffffffff168160000160009054906101000a900473ffffffffffffffffffffffffffffffffffffffff1673ffffffffffffffffffffffffffffffffffffffff161415610704576040517f08c379a00000000000000000000000000000000000000000000000000000000081526004016106fb90611c51565b60405180910390fd5b60018160040160006101000a81548160ff0219169083151502179055506000662386f26fc10000905080600260008460000160009054906101000a900473ffffffffffffffffffffffffffffffffffffffff1673ffffffffffffffffffffffffffffffffffffffff1673ffffffffffffffffffffffffffffffffffffffff16815260200190815260200160002060008282546107a09190611e3e565b92505081905550827f42bf422580f2ad778677f933565ab0b9dbc0aa411df8d1859483f5c89f54faac8360000160009054906101000a900473ffffffffffffffffffffffffffffffffffffffff16836040516107fd929190611b82565b60405180910390a2505050565b60026020528060005260406000206000915090505481565b6000600260003373ffffffffffffffffffffffffffffffffffffffff1673ffffffffffffffffffffffffffffffffffffffff168152602001908152602001600020549050600081116108a9576040517f08c379a00000000000000000000000000000000000000000000000000000000081526004016108a090611c71565b60405180910390fd5b6000600260003373ffffffffffffffffffffffffffffffffffffffff1673ffffffffffffffffffffffffffffffffffffffff1681526020019081526020016000208190555060003373ffffffffffffffffffffffffffffffffffffffff168260405161091490611ac8565b60006040518083038185875af1925050503d8060008114610951576040519150601f19603f3d011682016040523d82523d6000602084013e610956565b606091505b505090508061099a576040517f08c379a000000000000000000000000000000000000000000000000000000000815260040161099190611c11565b60405180910390fd5b3373ffffffffffffffffffffffffffffffffffffffff167feaff4b37086828766ad3268786972c0cd24259d4c87a80f9d3963a3c3d999b0d836040516109e09190611d51565b60405180910390a25050565b60035481565b6002806002811115610a2d577f4e487b7100000000000000000000000000000000000000000000000000000000600052602160045260246000fd5b6000803373ffffffffffffffffffffffffffffffffffffffff1673ffffffffffffffffffffffffffffffffffffffff16815260200190815260200160002060000160009054906101000a900460ff166002811115610ab4577f4e487b7100000000000000000000000000000000000000000000000000000000600052602160045260246000fd5b14610af4576040517f08c379a0000000000000000000000000000000000000000000000000000000008152600401610aeb90611cf1565b60405180910390fd5b6003548310610b38576040517f08c379a0000000000000000000000000000000000000000000000000000000008152600401610b2f90611d11565b60405180910390fd5b6000600160008581526020019081526020016000209050600073ffffffffffffffffffffffffffffffffffffffff168160010160009054906101000a900473ffffffffffffffffffffffffffffffffffffffff1673ffffffffffffffffffffffffffffffffffffffff161415610be3576040517f08c379a0000000000000000000000000000000000000000000000000000000008152600401610bda90611cd1565b60405180910390fd5b600073ffffffffffffffffffffffffffffffffffffffff168160000160009054906101000a900473ffffffffffffffffffffffffffffffffffffffff1673ffffffffffffffffffffffffffffffffffffffff1614610c76576040517f08c379a0000000000000000000000000000000000000000000000000000000008152600401610c6d90611cb1565b60405180910390fd5b338160000160006101000a81548173ffffffffffffffffffffffffffffffffffffffff021916908373ffffffffffffffffffffffffffffffffffffffff16021790555082816002019080519060200190610cd19291906113de565b5042816003018190555060008160040160006101000a81548160ff021916908315150217905550837f06f23e72707418d32b3d524efd61b181a8e279e08acd814af148f428885cb9cd3385604051610d2a929190611b52565b60405180910390a250505050565b60008060008373ffffffffffffffffffffffffffffffffffffffff1673ffffffffffffffffffffffffffffffffffffffff16815260200190815260200160002060000160009054906101000a900460ff169050919050565b600460009054906101000a900473ffffffffffffffffffffffffffffffffffffffff1681565b6060600060035467ffffffffffffffff811115610dfc577f4e487b7100000000000000000000000000000000000000000000000000000000600052604160045260246000fd5b604051908082528060200260200182016040528015610e3557816020015b610e22611464565b815260200190600190039081610e1a5790505b50905060005b60035481101561101d57600160008281526020019081526020016000206040518060a00160405290816000820160009054906101000a900473ffffffffffffffffffffffffffffffffffffffff1673ffffffffffffffffffffffffffffffffffffffff1673ffffffffffffffffffffffffffffffffffffffff1681526020016001820160009054906101000a900473ffffffffffffffffffffffffffffffffffffffff1673ffffffffffffffffffffffffffffffffffffffff1673ffffffffffffffffffffffffffffffffffffffff168152602001600282018054610f1f90611f43565b80601f0160208091040260200160405190810160405280929190818152602001828054610f4b90611f43565b8015610f985780601f10610f6d57610100808354040283529160200191610f98565b820191906000526020600020905b815481529060010190602001808311610f7b57829003601f168201915b50505050508152602001600382015481526020016004820160009054906101000a900460ff161515151581525050828281518110610fff577f4e487b7100000000000000000000000000000000000000000000000000000000600052603260045260246000fd5b6020026020010181905250808061101590611f75565b915050610e3b565b508091505090565b6001806002811115611060577f4e487b7100000000000000000000000000000000000000000000000000000000600052602160045260246000fd5b6000803373ffffffffffffffffffffffffffffffffffffffff1673ffffffffffffffffffffffffffffffffffffffff16815260200190815260200160002060000160009054906101000a900460ff1660028111156110e7577f4e487b7100000000000000000000000000000000000000000000000000000000600052602160045260246000fd5b14611127576040517f08c379a000000000000000000000000000000000000000000000000000000000815260040161111e90611cf1565b60405180910390fd5b6040518060a00160405280600073ffffffffffffffffffffffffffffffffffffffff1681526020013373ffffffffffffffffffffffffffffffffffffffff1681526020016040518060200160405280600081525081526020014281526020016000151581525060016000600354815260200190815260200160002060008201518160000160006101000a81548173ffffffffffffffffffffffffffffffffffffffff021916908373ffffffffffffffffffffffffffffffffffffffff16021790555060208201518160010160006101000a81548173ffffffffffffffffffffffffffffffffffffffff021916908373ffffffffffffffffffffffffffffffffffffffff160217905550604082015181600201908051906020019061124c9291906113de565b506060820151816003015560808201518160040160006101000a81548160ff0219169083151502179055509050506003600081548092919061128d90611f75565b919050555050565b60006020528060005260406000206000915090508060000160009054906101000a900460ff16908060000160019054906101000a900460ff16905082565b60016020528060005260406000206000915090508060000160009054906101000a900473ffffffffffffffffffffffffffffffffffffffff16908060010160009054906101000a900473ffffffffffffffffffffffffffffffffffffffff169080600201805461134290611f43565b80601f016020809104026020016040519081016040528092919081815260200182805461136e90611f43565b80156113bb5780601f10611390576101008083540402835291602001916113bb565b820191906000526020600020905b81548152906001019060200180831161139e57829003601f168201915b5050505050908060030154908060040160009054906101000a900460ff16905085565b8280546113ea90611f43565b90600052602060002090601f01602090048101928261140c5760008555611453565b82601f1061142557805160ff1916838001178555611453565b82800160010185558215611453579182015b82811115611452578251825591602001919060010190611437565b5b50905061146091906114c1565b5090565b6040518060a00160405280600073ffffffffffffffffffffffffffffffffffffffff168152602001600073ffffffffffffffffffffffffffffffffffffffff16815260200160608152602001600081526020016000151581525090565b5b808211156114da5760008160009055506001016114c2565b5090565b60006114f16114ec84611d9d565b611d6c565b90508281526020810184848401111561150957600080fd5b611514848285611f01565b509392505050565b60008135905061152b8161209f565b92915050565b600081359050611540816120b6565b92915050565b600082601f83011261155757600080fd5b81356115678482602086016114de565b91505092915050565b60008135905061157f816120c6565b92915050565b60006020828403121561159757600080fd5b60006115a58482850161151c565b91505092915050565b6000602082840312156115c057600080fd5b60006115ce84828501611531565b91505092915050565b6000602082840312156115e957600080fd5b60006115f784828501611570565b91505092915050565b6000806040838503121561161357600080fd5b600061162185828601611570565b925050602083013567ffffffffffffffff81111561163e57600080fd5b61164a85828601611546565b9150509250929050565b60006116608383611a34565b905092915050565b61167181611e94565b82525050565b61168081611e94565b82525050565b600061169182611ddd565b61169b8185611e00565b9350836020820285016116ad85611dcd565b8060005b858110156116e957848403895281516116ca8582611654565b94506116d583611df3565b925060208a019950506001810190506116b1565b50829750879550505050505092915050565b61170481611ea6565b82525050565b61171381611ea6565b82525050565b61172281611eef565b82525050565b600061173382611de8565b61173d8185611e1c565b935061174d818560208601611f10565b6117568161207a565b840191505092915050565b600061176c82611de8565b6117768185611e2d565b9350611786818560208601611f10565b61178f8161207a565b840191505092915050565b60006117a7600f83611e2d565b91507f5769746864726177206661696c656400000000000000000000000000000000006000830152602082019050919050565b60006117e7601283611e2d565b91507f416c7265616479207265676973746572656400000000000000000000000000006000830152602082019050919050565b6000611827601683611e2d565b91507f44656c6976657279206e6f74207375626d6974746564000000000000000000006000830152602082019050919050565b6000611867601483611e2d565b91507f4e6f2066756e647320746f2077697468647261770000000000000000000000006000830152602082019050919050565b60006118a7601083611e2d565b91507f416c7265616479207665726966696564000000000000000000000000000000006000830152602082019050919050565b60006118e7601a83611e2d565b91507f44656c697665727920616c7265616479207375626d69747465640000000000006000830152602082019050919050565b6000611927601283611e2d565b91507f4f72646572206e6f742061737369676e656400000000000000000000000000006000830152602082019050919050565b6000611967600083611e11565b9150600082019050919050565b6000611981601183611e2d565b91507f556e617574686f72697a656420726f6c650000000000000000000000000000006000830152602082019050919050565b60006119c1601383611e2d565b91507f496e76616c69642064656c6976657279204944000000000000000000000000006000830152602082019050919050565b6000611a01600e83611e2d565b91507f4e6f7420617574686f72697a65640000000000000000000000000000000000006000830152602082019050919050565b600060a083016000830151611a4c6000860182611668565b506020830151611a5f6020860182611668565b5060408301518482036040860152611a778282611728565b9150506060830151611a8c6060860182611aaa565b506080830151611a9f60808601826116fb565b508091505092915050565b611ab381611ee5565b82525050565b611ac281611ee5565b82525050565b6000611ad38261195a565b9150819050919050565b6000602082019050611af26000830184611677565b92915050565b600060a082019050611b0d6000830188611677565b611b1a6020830187611677565b8181036040830152611b2c8186611761565b9050611b3b6060830185611ab9565b611b48608083018461170a565b9695505050505050565b6000604082019050611b676000830185611677565b8181036020830152611b798184611761565b90509392505050565b6000604082019050611b976000830185611677565b611ba46020830184611ab9565b9392505050565b60006020820190508181036000830152611bc58184611686565b905092915050565b6000602082019050611be26000830184611719565b92915050565b6000604082019050611bfd6000830185611719565b611c0a602083018461170a565b9392505050565b60006020820190508181036000830152611c2a8161179a565b9050919050565b60006020820190508181036000830152611c4a816117da565b9050919050565b60006020820190508181036000830152611c6a8161181a565b9050919050565b60006020820190508181036000830152611c8a8161185a565b9050919050565b60006020820190508181036000830152611caa8161189a565b9050919050565b60006020820190508181036000830152611cca816118da565b9050919050565b60006020820190508181036000830152611cea8161191a565b9050919050565b60006020820190508181036000830152611d0a81611974565b9050919050565b60006020820190508181036000830152611d2a816119b4565b9050919050565b60006020820190508181036000830152611d4a816119f4565b9050919050565b6000602082019050611d666000830184611ab9565b92915050565b6000604051905081810181811067ffffffffffffffff82111715611d9357611d9261204b565b5b8060405250919050565b600067ffffffffffffffff821115611db857611db761204b565b5b601f19601f8301169050602081019050919050565b6000819050602082019050919050565b600081519050919050565b600081519050919050565b6000602082019050919050565b600082825260208201905092915050565b600081905092915050565b600082825260208201905092915050565b600082825260208201905092915050565b6000611e4982611ee5565b9150611e5483611ee5565b9250827fffffffffffffffffffffffffffffffffffffffffffffffffffffffffffffffff03821115611e8957611e88611fbe565b5b828201905092915050565b6000611e9f82611ec5565b9050919050565b60008115159050919050565b6000819050611ec08261208b565b919050565b600073ffffffffffffffffffffffffffffffffffffffff82169050919050565b6000819050919050565b6000611efa82611eb2565b9050919050565b82818337600083830152505050565b60005b83811015611f2e578082015181840152602081019050611f13565b83811115611f3d576000848401525b50505050565b60006002820490506001821680611f5b57607f821691505b60208210811415611f6f57611f6e61201c565b5b50919050565b6000611f8082611ee5565b91507fffffffffffffffffffffffffffffffffffffffffffffffffffffffffffffffff821415611fb357611fb2611fbe565b5b600182019050919050565b7f4e487b7100000000000000000000000000000000000000000000000000000000600052601160045260246000fd5b7f4e487b7100000000000000000000000000000000000000000000000000000000600052602160045260246000fd5b7f4e487b7100000000000000000000000000000000000000000000000000000000600052602260045260246000fd5b7f4e487b7100000000000000000000000000000000000000000000000000000000600052604160045260246000fd5b6000601f19601f8301169050919050565b6003811061209c5761209b611fed565b5b50565b6120a881611e94565b81146120b357600080fd5b50565b600381106120c357600080fd5b50565b6120cf81611ee5565b81146120da57600080fd5b5056fea2646970667358221220eb05122f663608c5e00281baafd1250e5198a667d43c8e18a92c49b167d4984764736f6c63430008000033",
    "linkReferences": {},
    "deployedLinkReferences": {}
}